:020000040000FA
:06000000020B490202069A
:03002B00020916B1
:0300330002022A9C
:0300530002014364
:03007B000206C9B1
:1000830002019A010101010503010F10FEFF1B1478
:100093001B141B141B14CB12C5121B14FA250000CE
:1000A30000009825000000000C0000000C00010077
:1000B300004F160000B3156B155D170D16E51600FE
:1000C300009515A404FF0200FE100000007211E861
:1000D3000364006400B801020200004000050150FF
:1000E30001051E02051E020A0A03B80B02803E0127
:1000F3000203320001FFFF0A1401E00202060606B2
:100103000606001414141414000600033000310012
:100113003200330034003500360037003800390030
:100123003000310032003300340035003600370030
:10013300380039008A05DF05DF05DF05DF05E70540
:10014300C0E074F212052BA2AFE492E0FED2AFE559
:10015300A7FAE5A1FBEA5B54106008121DB775A16D
:10016300EF802AEAA2E0C0D0EBA2E092F0120ACF1D
:10017300158182F05017906198E0FA901423E0C340
:100183009AA2D265D0335002EAF075A1FEEEA2E046
:1001930092AF7F010205E7C0E074F212052BA2AF14
:1001A300E492E0FED2AF9061A4E0FA759B00E59182
:1001B3005A540860087591F7121DF9802AE5915A7F
:1001C300541060087591EF121DFF801BEAA2E0C076
:1001D300D0E591A2E092F0120ACF158182F0500788
:1001E300E0C2E0F0121F379061A3E0FAE5E95A5448
:1001F30004600E121F0D75E9FB906193E0A2E640C7
:10020300F2808AC0E074F212052BA2AFE492E0FE02
:10021300D2AF9061A5E0FAE5BF5A5404600675BFFA
:10022300FB121F4F020190C0E074F112052BE59DF4
:10023300A2E650FA906206E0FAA2E25035A826E858
:1002430090620BF0F50885270974047808120B688F
:10025300E508906207F08526088527097409780860
:10026300120B68E508543E906209F0906201E0D2F7
:10027300E0F07823EA46F6906202E0F5087509009B
:1002830074047808120ABC7823E50846F608E509E1
:1002930046F6906204E0F5087509007409780812BF
:1002A3000ABC782308E50946F6EAA2E0500375255F
:1002B3000174065A6003752500E58BA2E5500675A7
:1002C3008BDF752500122081758B00C2E87F020247
:1002D30005E7C3E498F8E499F91203168026C3E40A
:1002E3009AFAE49BFBE920E7E9120316E498F8E4A1
:1002F30099F922C3E498F8E499F9120316E498F8FB
:10030300E499F9C3E49AFAE49BFB22EB20E7CFE9F3
:1003130020E7E0B90010BB0008E88AF084F8AAF0EF
:1003230022E4FBC8FA22EB70227B10C833C8C9331E
:10033300C9335007C39AC3DBF280069A50012ADB04
:10034300EAC833F4C8C933F4C9FA2275F008E4C81B
:1003530033C8C933C933C99AC99B5004C92AC93B95
:10036300D5F0ECFBC833F4C8E4C9FA22080808EA5C
:10037300C0E0EBC0E086F0E7A4FA180986F0E7A432
:100383002AFA180986F0E7A42AFA180986F0E7A4DE
:100393002AFA1986F0E7A4FBE5F02AFA190886F091
:1003A300E7A42BFBE5F03AFA190886F0E7A42BFB48
:1003B300E5F03AFA18180986F0E7A4C5F02BFBE438
:1003C3003AFA1908E7C5F0C6A426F6E5F03BFBE4C4
:1003D3003AFA1886F0E7A4F6E5F00826F6E43B08B7
:1003E300F6E43A08F6D0E0FBD0E0FA22E4CFC0E02E
:1003F300E4CEC0E0E4CDC0E0E4CCC0E075F020C3BF
:10040300E633F608E633F608E633F608E633F6187D
:100413001818EC33FCED33FDEE33FEEF33FFC3EC82
:100423009709ED9709EE9709EF97191919400FFFEF
:10043300EC97FC09ED97FD09EE97FE191906D5F027
:10044300BEECF709EDF709EEF709EFF7191919D023
:10045300E0FCD0E0FDD0E0FED0E0FF222518C5820D
:10046300C0E0E51934FFC583C0E0E518C3958224D5
:10047300F8F8E4C5A8858319858218C5A8E8CEF0E5
:10048300A3E520F0A37808E608F0A3DEFAEFF0A3D3
:10049300E58124FAF8E608F0A3E608F0A3E608F0FD
:1004A300A30808E608F0A3E608F0A315811581D098
:1004B300E0FED0E0F8158115811581E8C0E0EEC0BB
:1004C300E022120B93B90003020515E479217807A2
:1004D300B800028004F709D8FCE490030178B679E8
:1004E300178002F0A3D8FCD9FA9019B6AA82AB837D
:1004F30090008678BE79018015E493A3AC82AD8326
:100503008A828B83F0A3AA82AB838C828D83D8E902
:10051300D9E775822675839474041208F87582D915
:1005230075832274001208F8C0D02518C582C0E074
:10053300E51934FFC583C0E0E518C3958224F310A1
:10054300AF088583198582188008858319858218E9
:10055300D2AFC8F0A3E9F0A3EAF0A3EBF0A37908C4
:10056300E709F0A3D8FAECF0A3EDF0A3EEF0A3EFC4
:10057300F0A3D0E0F0A3D0E0F0A3D0E0F0A3E52017
:10058300F0A3E5F0F0A322120100020200002051C3
:1005930004A8160900010203010902430002010035
:1005A3008019090400000102020100052400100162
:1005B30004240202052406000105240100010705A5
:1005C300820340004009040100020A0000000705FD
:1005D300840240000007050402400000A505000056
:1005E300C8050000851983851882E0C0E0A3E0F9FF
:1005F300A3E0FAA3E0FBA37808E0F608A3DFFAE0A0
:10060300FCA3E0FDA3E0FEA3E0FFA3E0C0E0A3E0C2
:10061300C0E0A3E0F5D0A3E0F520A3E0A3F5F0E468
:10062300C5A8858319858218C5A8D082D083D0E058
:10063300F8D0E032D083D082ECC0E0EDC0E0E493A8
:10064300A3FCE493A3FDED4C600D12070DEC24FF16
:10065300FCED34FFFD80EFE493A3FCE493A3FDEDF5
:100663004C600D120822EC24FFFCED34FFFD80EFFB
:10067300D0E0FDD0E0FCE493A3C0E0E493C0E0222B
:10068300D083D082E9C0E0E493A3C386F0C5F0959C
:10069300F0F908E493A386F0C5F095F0700BE493AA
:1006A300A3C3994005E9048002A3E475F002A425DD
:1006B30082F582E5F03583F583D0E0F9E493A3C0B6
:1006C300E0E493C0E022C0E074F212052BA2AFE491
:1006D30092E0FED2AFE58AA2E2500790120BE0D27D
:1006E300E0F0E58AA2E3500790120BE0D2E1F07547
:1006F3008A00C2EB7A017B00901207E0F912187DA1
:10070300EEA2E092AF7F010205E7C0E0C3E4939657
:10071300087401939618400FE493667008087401F7
:1007230093661870007019A3A3C3E4939608740129
:10073300939618A3A3400DD0E0D0E0D0E002067357
:10074300A3A3A3A3A3A3D0E022851983851882E0E2
:10075300A3FEE0A3F5207808E0A3F608DFFAE0A300
:10076300FFE0A3C0E0E0A3C0E0E0A3C0E0E0A3C0DB
:10077300E0E0A3C0E0E4C5A8858218858319C5A875
:10078300D083D0820208FED083D082C5F0E493A345
:10079300C5F0C395F0F5F0E493A3C395F04005E5E8
:1007A300F0048001E475F002A42582F582E5F035BA
:1007B30083F583E493A3C0E0E493C0E02274048050
:1007C300087403800474028000CCC0E0EDC0E0E54F
:1007D30018C39CCCAD1950011D10AF068C188D1990
:1007E30080068C188D19D2AF120899D0E0FDD0E0A5
:1007F300FC2274028000CCC0E0EDC0E0E518C39C8D
:10080300CCAD1950011D10AF068C188D1980068CC4
:10081300188D19D2AF120877D0E0FDD0E0FC22C0CA
:10082300E0C0F088F0E493667008087401936618DA
:100833007000A8F0A3A3700BD0F0D0E0D0E0D0E01C
:10084300020673A3A3D0F0D0E022D083D082CCC021
:10085300E0E493A360061208D91470FAE493A3604A
:10086300061209E11470FAD0E0FCE493A3C0E0E4BB
:1008730093C0E022CAC0E0E493A3C582CCC582C57D
:1008830083CDC583F0A3C582CCC582C583CDC58383
:10089300DAE5D0E0CA22CAC0E0E0A3C582CCC582B3
:1008A300C583CDC583F0A3C582CCC582C583CDC521
:1008B30083DAE6D0E0CA2270090808082260161815
:1008C3001818C6C333C608C633C608C633C608C617
:1008D30033C6D5E0EA22C0E0E493A3D39C5010E4EE
:1008E30093A3C39C400AD0E0D0E0D0E002086AA3FF
:1008F300A3A3D0E022C09FF59FE473D09F22D083AF
:10090300D082C09FE493C0E0740193C0E07402936B
:10091300F59F22C0E0C0D0EAC0E0A2AFE492E0D2EB
:10092300AFC2C7A2E092AFD0E0FAD0D0D0E0322578
:1009330018F58210AF08F518400215198008F5184C
:1009430040021519D2AF851983227404800A7403F7
:100953008006740280027401C0E0F404120932D0EC
:10096300E0120B8622C0D0251810AF08F5185002EC
:1009730005198008F51850020519D2AFD0D022BB53
:100983000102E722C082C08389828A83BB0003E01D
:100993008002E493D083D082226016080808C6C37D
:1009A30013C618C613C618C613C618C613C6D5E091
:1009B300EA22BB000EC082C0838A838982F0D0837F
:1009C300D08222BB0101F722251810AF08F5184089
:1009D3000215198008F51840021519D2AF22C0E09C
:1009E300E493A36C7009D0E0D0E0D0E002086AA3DE
:1009F300A3D0E022E066701008A3E066700A08A3A3
:100A0300E066700408A3E06622C3E7960809E79648
:100A13000809E7960809E796A2D265D03322C3E016
:100A23009608A3E09608A3E09608A3E096A2D265F1
:100A3300D03322C3E096F008A3E096F008A3E09633
:100A4300F008A3E096F022E657F60809E657F60801
:100A530009E657F60809E657F622E056F608A3E03A
:100A630056F608A3E056F608A3E056F622E026F66B
:100A730008A3E036F608A3E036F608A3E036F6222C
:100A8300E026F008A3E036F008A3E036F008A3E080
:100A930036F022E056F008A3E056F008A3E056F043
:100AA30008A3E056F022E046F008A3E046F008A3CE
:100AB300E046F008A3E046F022700422600D18C659
:100AC300C333C608C633C6D5E0F41822C0E0E8C075
:100AD300E0E58124FCF8E6A2E7D0E0F8D0E022E6E6
:100AE30027F60809E637F60809E637F60809E63770
:100AF300F622E647F60809E647F60809E647F60848
:100B030009E647F622E4C396F608E496F608E49667
:100B1300F608E496F622C6F4C608C6F4C608C6F478
:100B2300C608C6F4C622C3E09608A3E09608A3E06D
:100B33009608A3E09622C3E7960809E7960809E713
:100B4300960809E7962275D00075814075180175DE
:100B53001903000204C5E0F608A3E0F608A3E0F6D3
:100B630008A3E0F622600C08C6C313C618C613C652
:100B7300D5E0F422E6F008A3E6F008A3E6F008A324
:100B8300E6F022CAC0E0E6F0A308DAFAD0E0FA22DF
:100B930074F855C74401F5C77901222518F582E495
:100BA3003519F58322C2AF75D69F020000221209C0
:100BB30001118101120901338101120901458101EA
:100BC300120901648101120901D081011209015D39
:100BD30082011209012F83011209017B830112098A
:100BE30001BA8301120901D783011209012184018A
:100BF3001209015C84011209017784011209019B26
:100C03008401120901D68401120901138501120915
:100C1300013685011209018485011209015E8601ED
:100C23001209010F87011209019F87011209018F20
:100C33008801120901D28801120901F688011209FB
:100C4300014889011209016D89011209019F8A0175
:100C5300120901CC8A01120901DE8A01120901E895
:100C63008A011209017B8B01120901EA8B01120926
:100C730001938C011209019B8C01120901108D0152
:100C8300120901528D01120901628D0112090142FB
:100C93008E01120901CD8E011209014E8F01120935
:100CA30001C48F011209010190011209016490012D
:100CB300120901BA9101120901DA91011209013CE9
:100CC3009201120901D99201120901329301120909
:100CD30001C193011209017D9401120901BB940121
:100CE3001209012A9501120901989501120901D0EF
:100CF300950112090104970112090157980112097C
:100D030001B89801120901019901120901299901F8
:100D1300120901AC99011209012C9A011209019FD0
:100D23009A01120901C49A01120901389B0112099F
:100D330001D39B01120901159C011209019B9C011E
:100D4300120901C29C01120901E19D01120901026C
:100D53009E01120901159E01120901639E011209E8
:100D630001FA9E011209018FA0011209019EA0013F
:100D7300120901E3A10112090150A2011209018123
:100D8300A2011209019EA30112090119A40112096A
:100D93000158A40112090193A40112090177A501C5
:100DA300120901B3A701120901BDA701120901C765
:100DB300A701120901D1A701120901DBA701120939
:100DC30001F5A701120901FFA70112090109A801F1
:100DD30012090113A80112090138A801120901918E
:100DE300A8011209019FA801120901C3A801120950
:100DF30001E7A80112090146A9011209019DA901F0
:100E0300120901BBA9011209012BAA0112090168E8
:100E1300AA01120901AFAA0112090117AB011209B4
:100E230001A6AB01120901E1AC0112090131AD01C7
:100E330012090167AE01120901CBAF011209015773
:100E4300B20112090129B401120901E0B501120925
:100E53000146B60112090156B70112090107B8018B
:100E63001209014CB801120901FDB8011209018BE5
:100E7300B901120901B3B90112090175BA011209C5
:100E83000154BD0112090179BD01120901CBBD0154
:100E9300120901C9BE0112090101BF011209014171
:100EA300BF01120901A0BF01120901BEC00112094D
:100EB300011EC10112090102C2011209010CC40180
:100EC3001209012EC401120901C1C501120901074A
:100ED300C601120901DBC6011209016EC70112091D
:100EE300019DC701120901C8C701120901B3C80155
:100EF300120901EFC80112090151C901120901DFE9
:100F0300C901120901E2C90112090151CA011209F9
:100F1300010828001209015A2800120901B12A0008
:100F2300120901EF2A001209013B2B001209012EBD
:100F33002C00120901992C00120901DA2C00120964
:100F430001302E00120901533000120901EA30006A
:100F53001209017E31001209014D3800120901E125
:100F630038001209015E3B00120901423C001209DC
:100F730001EE3C001209011F3E00120901153F005A
:100F83001209013F420012090102440012090162E1
:100F93004400120901164500120901BF4500120958
:100FA30001EA45001209017746001209015B470077
:100FB3001209012F4800120901C34800120901F068
:100FC30048001209011249001209012E4B001209AF
:100FD30001004C001209014D4C00120901BE4C00E6
:100FE3001209016C4D00120901A14D00120901EF14
:100FF3004D001209011F4E001209015D4E00120936
:1010030001C14E00120901C64E00120901214F0011
:10101300120901494F001209012B500012090194D2
:101023005000120901F5500012090158510012092C
:1010330001EB5100120901205400120901F9540077
:10104300120901895600120901195800120901B643
:101053005800120901F559001209018E5A001209AC
:1010630001D65A00120901495C001209015D5C00B6
:101073001209016A5C00120901855C0012090191E1
:101083005C00120901AF5C00120901815E001209C4
:1010930001BA5E00120901C75E00120901D05E00A9
:1010A300120901485F00120901975F00120901A2AA
:1010B3006000120901FE6000120901F161001209CA
:1010C30001356200120901C76200120901CC6300F5
:1010D300120901996400120901036600120901084B
:1010E30067001209019E67001209012168001209B5
:1010F300013868001209015C680012090166680082
:101103001209017068001209017C68001209019A32
:101113006800120901DE68001209012F6900120933
:10112300018C6900120901ED6900120901F46A00DA
:10113300120901056C00120901A46C001209019146
:101143006D00120901286E00120901BF6E00120919
:10115300018F6F00120901BE6F0012090130700088
:10116300120901DE70001209010471001209011C49
:1011730072001209013B7200120901AA72001209DE
:10118300011D73001209017673001209019C73009B
:10119300120901D773001209010374001209014EE9
:1011A3007400120901E674001209018D7600120918
:1011B30001B676001209013B770012090195770009
:1011C300120901BA77001209010078001209011D02
:1011D3007800120901CB7800120901A6FF01120958
:1011E30001F1FF011209011FCB0112090159CB01C2
:1011F3001209012CCC0112090102CD01120901319E
:10120300CE01120901BACF0112090138D001120926
:1012130001FED0011209011FD20112090191D2016D
:10122300120901F3D20112090155D3011209015F19
:10123300D3011209019DD30112090106D401120938
:1012430001A5D40112090123D501120901D6D50143
:1012530012090148D6011209016ED6011209019E35
:10126300D601120901CBD60112090171D701120966
:101273000181D701120901D4D701120901E0D70175
:10128300120901ECD701120901F5D701120901581E
:10129300D801120901B8D80112090109D9011209AB
:1012A3000124D90112090154D90112090175D90187
:1012B30012090181D90112090108DB011209012672
:1012C300DB011209018FDB01120901A2DB01120903
:1012D30001B3DB0112090146DC0112090149DD01F9
:1012E3001209013FDE01120901C2DE01120901CB1D
:1012F300DE011209012EDF0112090145DF01120986
:101303000187DF01120901CCDF01120901FBDF01B3
:1013130012090132E0011209014FE00112090173C0
:10132300E001120901B4E001120901A7E101120968
:1013330001EDE10112090128E20112090187E2012D
:10134300120901AFE201120901E8E201120901F6F3
:10135300E20112090157E30112090194E3011209A1
:1013630001D6E30112090107E4011209013BE4017B
:1013730012090146E40112090164E4011209012D75
:10138300E50112090137E50112090176E5011209A8
:10139300018CE50112090195E501120901FFE5013F
:1013A30012090113E6011209010BE7011209011EDB
:1013B300E70112090133E701120901D3E701120919
:1013C3000137E801120901FEE80112090109E901E7
:1013D30012090128EA0112090144EA011209019CD8
:1013E300EA01120901D3EA01120901EDEA01120926
:1013F3000161EB01120901F2EB011209013AEC015F
:101403001209015FEE01120901C9EE01120901344B
:10141300EF011209017AF1011209018AF10112099E
:10142300018DF10112090199F101120901ADF101D7
:10143300120901B5F101120901FAF101120901A81A
:10144300F20112090118F3011209017CF3011209D7
:101453000115F401120901AFF401120901DDF401D0
:101463001209017CF50112090188F501120901B77E
:10147300F501120901BAF50112090131F601120948
:101483000121F701120901F9F70112090183F8019A
:10149300120901A4F90112090156FA011209018F77
:1014A300FA01120901C0FA01120901C9FA0112096C
:1014B3000105FB01120901ECFB0112090168FC01A2
:1014C300120901F8FC01120901C2FD0112090146CA
:1014D300FE011209017CFE01120901C5FE01120978
:1014E3000161A50312090173A503120901F0A50304
:1014F30012090126A60312090196A6031209017D0A
:10150300A8031209017AAA03120901A9AD0312095A
:1015130001F1AD031209010BAE0312090171AE0310
:10152300120901A5AE03120901E2AE031209011269
:10153300AF031209014CAF0312090112E1031209AF
:101543000131E1031209017CE103120901C6E10340
:1015530012090169E2031209017DE203120901B4D0
:10156300E203120901ADF40212090162F502120944
:10157300019EF50212090125F6021209010AF90278
:1015830012090162F902120901CAFC021209016877
:10159300FE021209016899041209019499041209BF
:1015A30001909A04120901CD97041209010B9904C1
:1015B300120901F0CC0312090173CD0312090100D2
:1015C300CE03120901ADCE03120901CCCE031209D9
:1015D300010FCF03120901CDCF0312090142D0033A
:1015E3001209015FD0031209019BD0031209010CF8
:1015F300D10312090135D10312090189D10312095B
:1016030001CED103120901EBD10312090137E5031E
:10161300120901B1E503120901C8E50312090142E8
:10162300E60312090198E603120901A7E60312096A
:101633000152E703120901E9E7031209012FE80345
:101643001209019FE803120901B7E803120901BE59
:10165300C6031209013BC7031209015BC703120941
:101663000182C70312090196C703120901EEC703DA
:101673001209011EC803120901C4C9031209018911
:10168300CA03120901DBCA0312090125CB0312099C
:101693000162CB03120901D69D0212090101CC0399
:1016A30012090178CC03120901D2CC031209012BD0
:1016B3009004120901449004120901F090041209E4
:1016C30001AB9104120901D89104120901008004AD
:1016D3001209017B8004120901868004120901ABFF
:1016E3008004120901FE9A031209018E9C03120958
:1016F30001DA9D03120901F280011209010EA00310
:10170300120901C5A00312090116A1031209015907
:10171300A10312090174A203120901EBA203120926
:1017230001EDA203120901EFA203120901FDA203B5
:1017330012090113A30312090129A3031209016862
:10174300A30312090192A303120901C4A3031209FB
:101753000146A40312090100800312090114800346
:101763001209010081031209012C81031209016886
:1017730081031209018D8103120901AE810312094C
:1017830001E4810312090137820312090150830323
:10179300120901868303120901CD83031209010C87
:1017A3008403120901D98403120901FF8403120976
:1017B30001308603120901B28603120901C48703AB
:1017C300120901768803120901D488031209013230
:1017D3008903120901648903120901C689031209E5
:1017E300012C8A03120901708A03120901B58B03C4
:1017F300120901E08B03120901128C03120901582B
:101803008C03120901718C031209011B8D03120948
:1018130001ED8D031209019E8E03120901408F030E
:10182300120901057900120901517900120901C158
:101833007900120901DE7900120901A07A00120968
:1018430001A97A00120901FF7A001209012A7B001B
:101853001209018F7B001209012B7C001209016818
:101863007C00120901B97C00120901137D001209E1
:1018730001437D00120901C57D00120901127E009A
:10188300120901447E00120901797E0012090189BF
:101893007E00120901997E00120901B87E00120927
:1018A300016F7F00120901A87F001209015D9E04E8
:1018B300120901238E04120901878E04120901AE55
:1018C3008E04120901B48F0412090159E0021209AE
:1018D300018DE102120901DDE102120901A2E30215
:1018E300120901E2E3021209015AE602120901A1F7
:1018F300E60212090137E802120901D8E8021209C7
:101903000138E902120901BAE902120901EEE902FA
:1019130012090131EA02120901AFEB021209014374
:10192300ED0212090184EF02120901AEEF0212095E
:1019330001E9EF02120901F3EF0212090150F0026B
:10194300120901D3F0021209012CF402120901DC7D
:101953007F00120901F27F0012090182F0031209CC
:10196300019AF00312090142F10312090183F10301
:10197300120901A0F103120901C6F1031209010DB5
:10198300F20312090146F2031209017AF203120962
:10199300010CF4031209015EA00412090190A004D2
:1019A300120901D5A004120901EAA00412090114C5
:1019B30090031209015F90031209015A910312095E
:1019C300012392031209013892031209018292033F
:1019D300120901D39203120901E69203120901329B
:1019E30093031209018F9303120901C89303120988
:1019F30001D694031209014A95031209015A95036A
:101A0300120901A29503120901D495031209012DAC
:101A13009603120901499603120901AD96031209AF
:101A2300015798031209016F98031209019A980349
:101A3300120901C49803120901D69803120901225D
:101A43009903120901C39903120901E599031209C4
:101A530001EF99031209010C9A03120901819A03F8
:101A63001209019E9A03120901BB9A03120901CDBF
:101A73009A03120901D79A031209019BFF02120963
:101A830001B3FF02120901D8B70312090129B803F0
:101A9300120901ECB903120901BABB0312090104CB
:101AA300BC0312090103BD0312090152BE0312094B
:101AB3000170BE03120901C4BE031209014CBF0326
:101AC300120901BEA302120901E8A302120901606F
:101AD300A402120901ABA402120901FFA402120914
:101AE300018BA502120901EFA5021209013BA6020F
:101AF300120901ABA60212090140A702120901BD96
:101B0300A702120901F9A702120901D3AB021209B4
:101B13000186AD02120901ACAD021209011DAE022C
:101B230012090149B102120901EBB1021209018440
:101B3300B30212090195B402120901B7B5021209E1
:101B43000117B602120901D9B60212090167B702D9
:101B53001209016AB70212090129B8021209013CEC
:101B6300B902120901CCB90212090151BC021209CE
:101B730001DABC02120901F5BD0212090125C102F5
:101B830012090135C102120901A6C202120901217B
:101B9300C30212090164C402120901A0C502120999
:101BA300011FC602120901C6C6021209017AC70241
:101BB300120901F0C70212090108C802120901A49F
:101BC300C802120901E6C802120901E4C902120996
:101BD3000110CA0212090177CA02120901C8CA0216
:101BE30012090125CB02120901FCCD021209018160
:101BF300CE0212090104CF02120901A2D002120976
:101C0300014FD102120901F3D10212090148D20294
:101C1300120901BED202120901E8D302120901BE60
:101C2300D40212090101D5021209013ED50212099B
:101C33000166D502120901AAD50212090142D60290
:101C4300120901B4D70212090162D90212090178FB
:101C5300DA02120901D4DB02120901F7DC021209CC
:101C63000192DD0212090102DE0212090105DF02FF
:101C7300120901088A041209011D8A04120901329A
:101C83008A04120901778A04120901708B0412096C
:101C930001BAFD03120901E9FD0312090198FE03CC
:101CA300120901FEFE031209016FFF03120901A4C9
:101CB3009404120901D7A204120901CEA304120944
:101CC30001D5A304120901159604120901239604F0
:101CD30012090100A4041209017BA1041209018B5A
:101CE300A1041209019AA104120901E5A104120930
:101CF30001499D04120901D29D04120901449E0465
:101D03001209013FA2041209017AA204120901ED8A
:101D1300A304120901FDA304120901B082041209EC
:101D2300013B8304120901788304120901B8830477
:101D3300120901898404120901CA8404120901F1F8
:101D43008404120901048504120901198504120986
:101D530001278504120901ECD70312090141D803B5
:101D630012090155DA031209018DDA03120901B2CE
:101D7300DA03120901CBDA03120901E4DA031209C7
:101D830001D9DB0312090167DC03120901178C0473
:101D93001209015A8C041209016B8C041209019E69
:101DA3008C04120901D68C041209010E8D04120948
:101DB30001768D04120901A98D0412090110FB0398
:101DC3001209013BFB0312090182FB031209019172
:101DD300FB03120901B0FB031209011AFC031209E8
:101DE3000123FC0312090184FC03120901A8FC036B
:101DF3001209016EFD031209017BFD031209018C17
:101E0300FD0312090163A30412090180A30412094B
:101E130001DFEC0312090149EE0312090156EE0337
:101E23001209016FEE0312090182EE031209019CEC
:101E3300EE03120901BBEE031209013AEF03120983
:101E43000106F00312090163F00312090173F003A1
:101E53001209010BFF0112090130FF011209015997
:101E6300FF0112090181FF01120901C2870412094E
:101E730001E987041209011088041209018088040A
:101E83001209015E85041209017785041209018391
:101E930085041209018C8504120901B08504120915
:101EA30001BC8504120901CB8504120901E98504EB
:101EB3001209013B8604120901758604120901AA5D
:101EC3008604120901F986041209014587041209DF
:101ED300015D8704120901678704120901788704E9
:101EE300120901BC8704120901EEA104120901A819
:101EF300AF03120901D4AF03120901F0AF031209B2
:101F03000103B00312090119B00312090185B003DB
:101F1300120901BFB0031209012DB4031209014CC8
:101F2300B5031209017DB503120901DFB5031209D7
:101F330001BAB603120901E2B603120901F7B603A7
:101F430012090107B70312090148B7031209019DDA
:101F5300B703120901ADB703120901069C04120964
:101F630001219C041209014B9C04120901689C0481
:101F7300120901909C04120901B29C04120901CBBD
:101F83009C04120901FA9C04120901159D0412090B
:101F9300011DA30412090124F4031209012BF40304
:101FA30012090138F5031209016AF50312090190B8
:101FB300F503120901C3F503120901D5F50312094B
:101FC3000110F60312090180F603120901BDF6039D
:101FD3001209010AF70312090138F703120901581C
:101FE300F703120901C19A04120901FD9A041209A7
:101FF30001009C04120901039C041209015E9F0461
:10200300120901BC9F04120901FB9F041209013C40
:10201300A004120901C2D203120901C8D203120992
:102023000117D30312090105D5031209013ED50394
:102033001209019ED50312090184D603120901C8AE
:10204300D603120901F0D60312090176D703120948
:1020530001ABD703120901F4A00412090126A1045C
:102063001209015EA10412090160A10412090162AF
:10207300A10412090173A10412090175A104120933
:102083000178A104120901319204120901A79204F3
:10209300120901C19204120901F692041209012ADC
:1020A3009304120901B6F703120901F9F7031209A0
:1020B3000119F8031209016AFA03120901A4FA03C8
:1020C300120901CBFA031209018CA204120901803F
:1020D300BF031209016EC00312090154C10312099F
:1020E3000165C10312090176C103120901CFC103BE
:1020F3001209016EC303120901D3C4031209010EAD
:10210300C503120901DAC5031209013CC60312090A
:10211300010BE90312090133E9031209017CE90305
:1021230012090196E903120901BEE903120901D557
:10213300E903120901E2E903120901FFE9031209A4
:1021430001ECEA0312090123EB031209012DEB034E
:102153001209013AEB031209014BEC031209015472
:10216300EC031209015DEC0312090166EC03120989
:10217300016FEC03120901A6DC0312090193E003CA
:10218300120901A1E0031209019FA3041209010E20
:102193009D021209012D9C02120901F89B021209EA
:1021A30001C59B02120901A69B02120901469B026B
:1021B300120901FE9A021209013E9A021209011D37
:1021C3009702120901F59602120901989602120963
:1021D30001809602120901CB95021209016C950246
:1021E300120901C1930212090165930212090162E6
:1021F30093021209016B92021209014B9202120916
:10220300019B91021209011D9002120901E48F0240
:10221300120901B58F02120901BF8001120901934E
:10222300A30212090175A302120901B28F02120956
:1022330001A48F02120901908F0212090167A20201
:10224300120901838F02120901968E0212090122DB
:102253008E02120901BD8D02120901CBA1021209DE
:1022630001B59F031209018A8D02120901328D0201
:10227300120901018D02120901318A021209011AA0
:102283008A021209018D8902120901DB88021209EF
:10229300017A8602120901E38302120901AD830266
:1022A3001209015382021209010682021209013F37
:1022B30081021209011281021209016780021209C7
:1022C300013A800212090100800212090159A00299
:1022D300120901C5CB0300000080FBE473870001F2
:1022E30000DB1124000200021A25000200041A2652
:1022F300000200061A27000200081A280001000A3B
:102303001A290001000B1A840004000C1A8600012C
:1023130000101A2A000100111A2B000100121A2CB6
:10232300000100151A2D000800C7112E0001001628
:102333001A2F000100171A30000100181A3100018A
:1023430000191A32000100CF1133000100D01134FB
:102353000001001A1A36000100D111380001001BD8
:102363001A39000100141A83000200281A630001BD
:1023730000DA1164000100C41165000100131A6D35
:10238300000100271A6E000200C511430001001C62
:102393001A440002001D1A450001001F1A460002DC
:1023A30000201A47000800D21148000100221A49F0
:1023B300000100241A4A000200251A4B00010023E1
:1023C3001A040001002A1AA10001002D1A37000186
:1023D300002C1A880001002B1A00000000000000E6
:1023E300013636010100010201000103010001046D
:1023F30001060605020000070100340801000F0969
:102403000401010D0100FF0E08000017020000196E
:102413000100FF1A0100011B0100FE1C0100081D41
:102423000200001F0100012001000121020000231E
:1024330001000F24020000260100012701000828E3
:102443000200FF2A0100072B0102402C0100002D8E
:102453000100012E0100012F0100FF30010B1C318F
:102463000800003A0100083B01000F2F01000003A0
:1024730002710230016002110270020102020202C3
:10248300028002100261023A004100630273027289
:102493000262024302000213023800000200020437
:1024A30002120200020002000200020402040237C8
:1024B3000037003C024402000239000002000265BA
:1024C3000200023502810200020502820283020039
:1024D3000201017101010101011101010131010138
:1024E3000101018001100161013B001400630173CC
:1024F300017201620143010001130106013D01352F
:1025030000040112010001000100010001040104A3
:1025130001330133013C0144013201360000010063
:10252300016501000135008101000105018201837C
:102533000100010304710402046004110470040225
:10254300040204010402041004610400041404637B
:1025530004730472046204430400041304060400B5
:1025630004000404041204000400040004000451E1
:102573000464000004000400044404000400040094
:1025830004000465040004350481046400050400A8
:102593000483040004010371030103010301030124
:1025A30003010322030203010310030003000300DA
:1025B3000300030003000300034203000324030694
:1025C300030003000304031203250323032503234A
:1025D3000304030403000300030003440300030094
:1025E300032303000365032100350381030003056F
:1025F30003000300030003030071003001600011B6
:1026030000700031022003500480001000610000BC
:1026130000140063007300720062004300000013A3
:10262300000600000000000400120000000000008B
:1026330000000004000400370037003C024400009F
:10264300000000000000006500000035008100006C
:102653000005000000830000000000E31B13005F7F
:102663001B0100E31B0200E71A0300ED1A0400F349
:102673001A0500F91A0600051B3000231B31001D43
:102683001B32002F1B3300351B35003B1B3400412D
:102693001B3600471B1100531B1400591B15001751
:1026A3001BFFFF000036000100060000000F0000C2
:1026B300000000000000000000000003FFFF000016
:1026C3000403FFFF0000FFFF0FF4010005C4040330
:1026D30020000100000B00000000000000000301C7
:1026E3000F015F0F068F0F08890F0BA10F10C30E89
:1026F30002650F057D0F076B0F0C410F0D530FFF85
:10270300000003EAF5E5D5D5C5B5A595958585758D
:102713007565655555454535352525151505251328
:1027230055132B1331134F1343133D135B136113D2
:102733006713731337131F13191300160F00000BBE
:10274300150B020002220F320000061B142D143356
:1027530014EF123914E912F5127B1499149F1481A2
:10276300148D148714291223125F12651259121142
:102773001200011916181616152303000C0E020B6E
:10278300040B0A0708000F303016181920231A1CEF
:102793001E3000383C3E363B3B352B432C30301744
:1027A300181921301B1D1F3000034948424D1817CB
:1027B3002505026F143F14451451144B1449136D2E
:1027C30013931479137F1302040201010101090217
:1027D3000005150D0910080435123B122F126B1258
:1027E3004112531200BE040AE8030E001500040050
:1027F300280003090105100A0309000008FF1E1E33
:102803000F0408100CC082C083E99003CDF0E4905C
:102813000382F0121FE59003E1E4F0A3F09003CEEE
:10282300F0A3F012116F120C35120E1B121FEB9056
:102833000342E4F0A3F09003F3E07002A3E0600925
:102843009003F3125F331222DE902803E493FA79A4
:1028530002122159024EBA74F212045FEAFEEBFF30
:1028630074805FF9E47001E960619003CDE0F912CF
:1028730018538A088B09EA7001EB60467B008001DC
:102883000BEB75F003A424E4F8E5F03426F9888211
:102893008983E493FA74FF6A60218508828509833A
:1028A300E06A70DCAA08AB0988828983A3E493C039
:1028B300E0740193F583D0821222DEAA08AB0912D9
:1028C3001847EEFA74806FFB022A9A74205FF9E4CA
:1028D3007001E9601D1210258A088B09EA7001EB6B
:1028E300600A120F53AA08AB09121847EEFA7420B4
:1028F30080D4EE542070030229CB750C00124B20B8
:102903007001EB700B7C027D007A207B00127176E4
:102913007C0079047A007B00120FE98A088B098016
:102923000D740188828983F0850A08850B09E508FF
:102933007002E509606D7C007904AA08AB09120FE7
:10294300E98A0A8B0B750C01E50824041271C12472
:10295300FFF0A3E034FF1274C97002A3E070C9E56D
:10296300082409F8E5093400F9850882850983A359
:10297300A3A3A3A3A3A3A3A3A3E0640170A38508B4
:1029830082850983A3A3A3A3A3A3E0540470927431
:102993000688828983F07AB7850882850983122C99
:1029A300238085120FB97C0079017A007B00120F16
:1029B300E9EA7001EB7009E50C70057A20122AA68A
:1029C30074206EFAEF0228CAEE54106007120E51FB
:1029D300741080EEEE54406007120EAB744080E238
:1029E300EE54806007120D4F748080D674015FF936
:1029F300E47001E9601A9003F5E07002A3E0600956
:102A03009003F5125F331222DEEEFA74010228C935
:102A130074085FF9E47001E9602D120E279011CF5D
:102A2300E06401701B9011D0E06015FC75F0E8A420
:102A3300CCAAF075F003A42AFD7A007B0812717604
:102A4300EEFA74080228C974105FF9E47001E960B2
:102A5300129003DFE06005E4F0120E27EEFA741023
:102A63000228C974025FF9E47001E9600A1211696E
:102A7300EEFA74020228C974045FF9E47001E96094
:102A83001212646B1262C17901123C38EEFA7404BB
:102A93000228C97A007B00800574031209687F0647
:102AA30002074C7B009003CDE0F912197F22C0820C
:102AB300C08374EA1209CB851882851983AA82AB75
:102AC30083794B12211D7408120B9E7402F0740952
:102AD300120B9EAA82AB83795012211D7413120B21
:102AE3009E12697312214D7416024EB774F71204C5
:102AF3005F74E11209CBEAFEEBFFEE7001EF603386
:102B0300851882851983AC82AD8312104F74061227
:102B13000B9EE0601E7417120B9EE0FD7401120BF6
:102B23009EE0FCEEFAEFFB7900122225E9600479BE
:102B3300A48002790002500F74F512045FEAFEEBE1
:102B4300FF8E828F83A3A3A3A3A3A3E054406018A3
:102B5300126ADF60067AFF7BFF806A8E828F8312A0
:102B63005417FAA3E0FB805390036DE0A2E15048B1
:102B7300126801241CF8EB124B0B7508FE7509FF54
:102B830078081209551237D41207C879008C828D40
:102B9300831266F5A3A3A3E0F5088C828D831264E8
:102BA30058A3A3E0FDAC088A828B83125BBF120E8D
:102BB3002D7404120968800312107374FE6A700383
:102BC30074FF6B6043125F2F1265F212110FE98ECF
:102BD300828F836006122C1CE48005122C1C740166
:102BE300F07C237D0F8E828F83125BBF122153E90A
:102BF300F5087017EE7001EF60097901EEFAEFFB4B
:102C0300120FC5A90802696E7508CDAA088E828FB6
:102C130083122C23E960DD80EAE0240D125673222F
:102C2300E0240C12508FF9120F2F2274F612045F56
:102C3300E9FEEAFF7A0F7B00121841EA7001EB60AC
:102C430019740C8A828B83F0EEA3A3F0EF8A828B34
:102C530083A3F01262B279008028EEF9120FEF8A93
:102C6300088B09A808A909E87001E96013740688AC
:102C73008289831274CEE0F9120EBDEEF9120FCBE6
:102C83007910025F2AEAFCEBFD7A017B009003CD09
:102C9300E0F912197322C082C0837900EA241DF57A
:102CA30082EB1237DA125BBF90036DE0A2E18A82F6
:102CB3008B83E0500E12084D01010AC32C00D72C60
:102CC30009801112084D010304C32C0207C32C0A07
:102CD300C32CD72C024EBA74EE12045FEAFEEBFF4C
:102CE3008C088D09890E7412120B9EE0F510A3E077
:102CF300F511851082F583E4F0A3F0122E0CEE2477
:102D03001DF8EF3400F9880C890D8882122E256096
:102D13001F850A82850B831230E47014850A82852D
:102D23000B831251CF8510828511831262C18003F8
:102D3300750E00850C82850D8312541712078A01C4
:102D430009AB2D5A2D722D802D8B2DAB2DB52DABAF
:102D53002DCF2DE82DFB2D7810120955AC08AD09A8
:102D6300EEFAEFFB120E397402120968022E04AC5C
:102D730008AD09EEFAEFFB120E3F022E07A90EEE85
:102D8300FAEFFB121127807912764A64027019E573
:102D93000E700A122E197003A3E0697067EEFAEF42
:102DA300FBA90E1210D98059750E007901121FF775
:102DB3008052122E197003A3E06970EC12764A64F4
:102DC3000270E5EEFAEFFB1210C180389003F7E0D2
:102DD3007002A3E0602EEEFAEFFB9003F7125F336D
:102DE3001222DE801F122E197003A3E06970B9EE60
:102DF300FAEFFB121133800CEEFAEFFBA90E12115E
:102E03003FE9F50EA90E024AFCEE2409F8EF34005F
:102E1300F9880A890B22850A82850B83126967E088
:102E23006822F58312541BF91210EBE92274ED1298
:102E3300045F74DE1209CB8A088B09EA2402F510B9
:102E4300EB1257EFF9120FEF8A0A8B0BAE0AAF0B97
:102E5300EE7001EF7003022F17E508240C1265CD05
:102E630012304224061237CC850882850983A38554
:102E73008208858309E064F16017E064CD6012E0A5
:102E8300641A600DE064E96008E064E16003022F06
:102E9300A1850E82850F83A3E05408F9E47001E94C
:102EA300607F7405850A82850B83F09003FBE070D5
:102EB30002A3E060099003FB125F331222DE90034A
:102EC300FDE07002A3E0603390036DE0A2E1502BBC
:102ED3008E828F83126AD9A3A3A3A3A3A3A31250A1
:102EE300191237E6EA7001EB6011850882850983C0
:102EF300E0F99003FD125F331222DE850A82850B0F
:102F030083E0640270037406F0851082851183E008
:102F1300F9120FCB120FB974221209687F0B020743
:102F23004C7900120FC5E9607590036DE0A2E14092
:102F330003022EAE126EA67002A3E07003022EAE41
:102F43007403120B9E126E8D850882850983E064DB
:102F5300E9701A12304A120959850882850983E0FB
:102F6300F51278121209591241FC120968740C12F5
:102F73000B9E125BBF125F2F1265F27900740E1263
:102F83000B9E1253F1740C120B9E1238167003022F
:102F93002EAE850E82850F831253FB022EAD85085C
:102FA30082850983E0C0E07402120B9ED0E0F01228
:102FB3007024EE240B12764D851882851983AA821C
:102FC300AB837005120D9780031210E57402120B88
:102FD3009EE064E9701412304A1209597512E978B7
:102FE300121209591241FC12096890036DE0A2E123
:102FF3004003022EFE850A82850B83E0640270275C
:10300300850E82850F83E05404601C126ADF7013FF
:10301300125F2F74FFF0A3F07405850A82850B837A
:10302300022F0B740380F3850882850983E064E92A
:103033006003022EFEEEFAEFFB121145022EFEEEA6
:10304300240912717FEE221268067512017812228A
:1030530074F512045F8A088B09750A00EA240912C1
:1030630051C2FEE9FF8E828F831230E47003750A2A
:10307300018E828F83125ACD7003A3E06B7006E535
:103083000AD2E1F50AE5082402FEE5093400FFE56A
:103093000A60138E828F83E07006E50AD2E580040E
:1030A300E50AD2E6F50A12110FE964017006E50A92
:1030B300D2E0F50A8E828F83E06017E508241DF5C0
:1030C30082E5093400122E2564016006E50AC2E098
:1030D300F50AE50AA2E14004D2E7F50AA90A026962
:1030E3006E126AEA640222C082C08379018A828BEB
:1030F30083A3A3E0C394024001198A828B83A3A311
:10310300A3A3E0C39402400279008A828B83A3A322
:10311300A3A3A3A3A3A3A31253F174F86C70037422
:10312300FF6D601E74F96C700374FF6D601474FAA4
:103133006C700374FF6D600A74FB6C700374FF6D35
:10314300700279008A828B83A3A3A3E0FC900370AF
:10315300E06C60027900902802E493C394805018D5
:10316300E493C333C0E0EA2411F582EB127650FAFC
:10317300D0E0C39A50027900024EBA74E812045F99
:1031830074DC1209CBEAFEEBFF7403120B9E12638D
:10319300C47514007515007405120B9EAC82AD83C3
:1031A3008E828F83A3A3A31265DE125BBF12104F1F
:1031B300E9600F7405120B9EAA82AB83120F4DE9CF
:1031C30070087901121FF70237C2EE241B1251C98E
:1031D3007412120B9E1262C1740B120B9EE06023D9
:1031E300741C120B9EE0FD7406120B9EE0FC8E8293
:1031F3008F83A3A3125BBF7901122225E9600479AF
:103203000280C17405120B9EAA82AB83120F47E999
:10321300F508740B120B9EE0702990036AE060239B
:10322300742255086422601B74425508644270CFAF
:103233007422120B9E125417FA74066A60057407FF
:103243006A70BCE9A2E650127405120B9EAA82AB07
:1032530083120F35E970030231C5EE2412F516EF20
:103263003400F517EE242A123045242C1237D712D6
:103273003CE7E0687003A3E069701C7509007809F6
:103283001209597809120959EE242E1237DE123722
:10329300F212420C120968740B120B9EE0700302C7
:1032A300333C1237F21237E68A0A8B0BA80AA90BB2
:1032B300E87001E970030233E07406120B9E1237C3
:1032C300EDFAA3E03400FB740D2AF582E43BF583A9
:1032D300E0FAE82404F50AE9127182E82403F5828E
:1032E300E91276506A600DEAF09080B2780C120B06
:1032F3005912383779047406120B9E1237EDFCA36A
:10330300E034008C82F583A3AA82AB831218358A3A
:103313000C8B0D8C0E8D0F850A82850B8378101212
:103323000B597810790C120B3950030237C2908075
:10333300A2780C120A70123837EE24241237CCEE1E
:103343002430F50CEF1265D1EE242F12717F900318
:103353006DE0A2E15003023479900382E0FA740431
:103363006A600874096A60030237C2E508A2E5408F
:103373000302342612381EC0E07401120B9ED0E003
:10338300124236C0E07402120B9ED0E0F0741612A3
:103393000B9EE0640170207410120B9E12380270B1
:1033A30003A3E0697011740E120B9E1230E47007D0
:1033B3007416120B9EE4F0850E82850F831207C0EC
:1033C3007404120B9EAC82AD837409120B9EAA8205
:1033D300AB83120D9D74041209680237C29003C7B0
:1033E300E06401600302333C7422120B9E125417F3
:1033F30064067009E508A2E6500302333C74121216
:103403000B9EE064FF7004A3E064FF70030237C205
:10341300EEFCEFFD7405120B9EAA82AB83120F59CB
:103423000237C2A2E640030237C27422120B9E1275
:10343300380E701E741C120B9EE064026003023788
:10344300C27405120B9EAA82AB8379001210D902B3
:1034530037C274076A60030237C2741C120B9EE002
:10346300640460030237C27405120B9EAA82AB8305
:103473001210CD0237C27416120B9EE0601D8E82AD
:103483008F83A3A3124228141259C1A3124228C046
:10349300E07416120B9ED0E0F07006E508C2E7F563
:1034A30008900382E0FA74046A600574096A706123
:1034B300740E120B9E125ACD7003A3E06B601712A9
:1034C300110FE96402600F740A120B9EE054036447
:1034D3000160030237C27407120B9EE0701B12389F
:1034E3001EC0E07401120B9ED0E0124236C0E0749D
:1034F30002120B9ED0E00233B97422120B9E1238D3
:103503000E700302343774076A60030237C2023451
:103513005D75090074615508700302362DE508A234
:10352300E050708516828517831253F17405120BD0
:103533009EAA82AB83120EB1E9705512107FE9F592
:10354300097416120B9EE0700F7410120B9E123842
:10355300027003A3E069603BA9098516828517837E
:103563001253F17405120B9EAA82AB83120EB7E9B4
:103573006013740E120B9E1269E7120B9E1262C146
:10358300751404800EE508C2E5F50875090080038B
:1035930053089FE508A2E5503C12381EC0E07401B1
:1035A300120B9ED0E0124236C0E07402120B9ED082
:1035B300E0F0850E82850F831207C07404120B9E00
:1035C300AC82AD837409120B9EAA82AB83120D9D4C
:1035D3007404120968E508A2E640030236FA74038C
:1035E300120B9E85820A85830B780A120955A90955
:1035F3008516828517831253F17407120B9EAA82D4
:10360300AB83120F3B7402120968E9F509700302D8
:1036130036FA7422120B9E125417640160030236A9
:10362300FA74104514F5140236FA7407120B9EE06F
:103633006401703B7422120B9E1254176405702FA1
:103643007403120B9E858208858309780812095535
:1036530079008516828517831253F17407120B9E26
:10366300AA82AB83120F3B74021209680237C27439
:1036730016120B9EE070127422120B9E12541764E2
:103683000360030234130237C2120FBFE96003025F
:1036930037C2740E120B9E1269E7120B9E1262C19F
:1036A3007809120959741E120B9EAC82AD83740FF4
:1036B300120B9E125BBF740A120B9EE0F9120EF3FB
:1036C3007401120968E9600F7514208E828F83A339
:1036D300A3125417543FF079007410120B9E125327
:1036E300F1740E120B9E123816600674204514F501
:1036F3001412107FE9F5097403120B9EE064FE7047
:1037030004A3E064FF7003750900E508A2E7400322
:103713000237C2E50970030237C28E828F83A3A3E7
:10372300A3A3E0FA7B001218BF8A0A8B0BEA70018D
:10373300EB70030237C28E828F83A3A3E0F50CA341
:10374300E0F50D750E00780C1209518E828F83A35C
:10375300A3A3A3E0FC7D00124818120968740712A2
:103763000B9EE0851882851983F07401120B9EE489
:10377300F0A31258A985820C85830D780C12095584
:103783007814120955E509F50878081209598516C0
:10379300828517831207C88E828F83A3A3A3A3E016
:1037A300F9740A120B9E1253F1AA0AAB0B12103DC5
:1037B3007407120968E96007AA0AAB0B1218C574EB
:1037C300241209687F1002074CF50EEF3400F50F41
:1037D30022EE240EF582EF1271EC22F582EF1264D1
:1037E30093F92212508912119F22126DDB2A22852E
:1037F3000A82850B831251E585168285178322126F
:1038030054EF851682851783E0682212541BFA74DD
:10381300046A22125089120E33E922EE242E126416
:103823009085188285198312382E22F0850A8285A5
:103833000B83E022850A82850B83E50CF0A3E50D5B
:10384300F0A3E50EF0A3E50FF02274F212045FEA91
:10385300FEEBFF8C088D09122E0C8882F583125B18
:10386300BF9011CFE06011900373E06A7003A3E08F
:103873006B7005120E2780537900120ECF8A828B4C
:1038830083E5827002E583603AA3A3A3A3A3A3E025
:103893005418602FE508241BF582E5091237DA1264
:1038A30007C8E5082412F582E5091237DA1207C8BA
:1038B300EE24181237DE1238D1120EFF74041209E7
:1038C30068800879001238D1120E4B022AA1850AAA
:1038D30082850B831251E5EE240B1250822274EE83
:1038E30012045F74EA1209CB8A0C8B0DEA2402F5E9
:1038F3000EEB1237CF0A0AFB120C598A088B09AE5A
:1039030008AF09750901850C82850D83A3E0F508CD
:10391300750A01AC0EAD0F851882851983AA82AB97
:103923008312200F7408120B9E1263C4740A120BC5
:103933009E7402F07413120B9EE4F0E50C240AF556
:103943000CE50D1265D19019B8E07010EE7001EF1F
:10395300700AE50870067509C3023AB7900382E05E
:10396300640860067509C2023AB3850C82850D832B
:10397300E0A2E1500EA2E35005750A04800C750A1B
:10398300038007A2E35003750A02EE7001EF60643F
:103993008E828F83A3A3A3A3E0FA74046A600574E1
:1039A300036A700C7404650A601C7403650A60166C
:1039B30074026A600574016A70207402650A600605
:1039C3007401650A700F8E828F83124510120B9E4D
:1039D3001262C1801F74026A600574016A700A8EE4
:1039E300828F8312466D1222DEAA0EAB0F120C6574
:1039F3007E007F007408120B9EE064FE7004A3E057
:103A030064FF7038120C2FE97032E50860179003D9
:103A1300BFE06402700F9019BF124510120B9EE8AD
:103A2300F0A3E98016850C82850D83E05402F91218
:103A33000E5D7408120B9EEAF0A3EBF07408120BF0
:103A43009E123B57700374FF6B70057509C7806046
:103A5300E508F50B780B120959850C82850D83E077
:103A6300F9AC0EAD0F120DBB7401120968E9704079
:103A7300A90AAC0EAD0F7408120B9E123C318A10CA
:103A83008B11AE10AF11EE7001EF601C740265086C
:103A9300700BEE240512764D54FB4408F0740A12A1
:103AA3000B9EE4F0F50980087408120B9E1263C4A0
:103AB300E508700F851882851983AA82AB831221CA
:103AC3002F8010FCA90A851882851983AA82AB83EB
:103AD3001210C7E9FAEE7001EF603EEE2405F8EF2D
:103AE3003400F9E508601288828983E0D2E6F07435
:103AF3000265087004E0D2E5F0850C82850D83E051
:103B0300A2E6500888828983E0D2E7F08E828F8311
:103B1300A3A3A3A3A3A3E004F0E5097003EA602F22
:103B2300FC7D007A017B10121FF1EE7001EF60073C
:103B3300AA0EAB0F120C657408120B9E123B577042
:103B43000374FF6B600990035A125F331222DE7411
:103B530016024AF912508974FE6A2274F612045F3F
:103B630074F71209CB8A088B09900382E0FA740375
:103B73006A600D74016A600874096A6003023C2E6E
:103B83008508828B83A3AE82AF83E06003023C137C
:103B93007C007D007A027B00121FF1E508240212EB
:103BA3004B121269631262C17953122123790012F5
:103BB3003C38900382E064096009900380125BBF84
:103BC30012119974011260997404900382F07401C4
:103BD300120B9EAA82AB83794A12211D7401120B28
:103BE3009EAC82AD837A787B0312200F7900740137
:103BF300120B9EAC82AD83900376123C3190036D21
:103C0300E0A2E35004D2F08002C2F0126081801877
:103C1300FC7D007A037B10121FF18E828F83E0F903
:103C2300123C38E4900382F0120F9B025F2512507E
:103C330089120C4722900380125089120DB522C0BD
:103C430082C083900342E07002A3E070419003823C
:103C5300E012084D000301643C05733C06823C916D
:103C63003C90034AE07002A3E0607690034A806BC5
:103C7300900346E07002A3E06067900346805C9087
:103C83000348E07002A3E06058900348804D90031E
:103C930042E07002A3E06009124225FC74016C70DB
:103CA3002379009003CE800909EA126BF8EB1237EF
:103CB300DA124DEA7001EB70EF9003CE125BBF1284
:103CC3000DA3801D74026C700512115D80139003A7
:103CD300F9E07002A3E060099003F9125F33122246
:103CE300DE024EBA1254EF9003802274F412045F82
:103CF30074EB1209CBEA1251BCFAE9FB8A828B837B
:103D03007808120B597808120B199003837808125C
:103D13000A967F7F7E7F7C00750801750900750A0E
:103D230000750B00EC78081208BA90038378081228
:103D33000A5D9080B278081209F7602A7D0090032B
:103D4300CE801288828983A3A3E06C70010D126B6D
:103D5300F7E91237DA124E587001E970E6EDC39FA6
:103D63005004EDFFECFE0CECC3941B40AB8A828B3A
:103D7300837808120B599080B278081209F76045CE
:103D83009003837808120B778A828B837808120B4F
:103D9300598518828519837808120B777404120BDE
:103DA3009E7401F0900389E0C0E07405120B9ED06D
:103DB300E0F07407120B9E123F0D805B120DDF9033
:103DC30003801265F29003CE124E587001E960220F
:103DD300900380127017E06A7003A3E06B700A8887
:103DE300828983A3A3E06E60D3126BF7E91237DAFB
:103DF30080D6EE900375F0120F83E9601AE4900306
:103E030082F090034CE07002A3E0600B79C490034E
:103E13004C125F331222DE7415025A6674F01204D8
:103E23005F74EB1209CB8A828B83A3A3A3A3A3A3FF
:103E3300A3A3A3124E58FAE9FB7C00750C01750D80
:103E430000750E00750F00EC780C1208BA850C088B
:103E5300850D09850E0A850F0B9003837808120AD6
:103E63005D9080B278081209F760259019BEE0C012
:103E7300E08C08EA2508F582EB127650FDD0E0C30A
:103E83009D500D780C120B19900383780C120A962F
:103E93000CECC3941B40A49003837808120B599035
:103EA30080B278081209F7603985188285198378FA
:103EB30008120B777404120B9E7401F07407120B33
:103EC3009E7401F0900389E0C0E07405120B9ED04C
:103ED300E0F07407120B9E123F0D7406900382F0FC
:103EE3008023E4900382F0FCFD7A047B10121FF11F
:103EF30090034CE07002A3E0600B79C490034C1272
:103F03005F331222DE74150259B9E4126978122163
:103F13003B2274EC12045F74ED1209CB8A828B830B
:103F2300A31241EDEA24081251C2FEE9FF8518826B
:103F3300851983AC82AD838E828F83124215A3A32E
:103F4300A3A3125BBF120FAD851882851983E0709E
:103F5300768E828F83E0C3940B406C85088285093B
:103F630083A3A3A3A3A3A3A3A3E064027059900311
:103F730082E0FAE5082410F510E5093400F511E5AF
:103F83000824091265CD74026A604174066A603CB4
:103F9300900342E07002A3E06007124225640160CF
:103FA3005474086A600574046A701C7402120B9ED0
:103FB300E0F97407120B9EAC82AD83850C82850DEC
:103FC30083125BBF120FB37413026D5A900342E066
:103FD3007002A3E0701F750A00780A120959780A63
:103FE3001209598510828511831241DF124B1A126F
:103FF300420C1209689003CE1272169003CE126D12
:1040030052E508240DF50EE5091237CF80318E8273
:104013008F83E0F8A31241DFE0687003A3E06970C7
:10402300128E828F83A3A3E0FA850E82850F83E02D
:104033006A606B8E0A8F0BEE126BF8EF127213EE3F
:104043007001EF70C97A187B001218BF8A128B13A4
:10405300AE12AF13EE7001EF7003023FCA7C181269
:1040630073F91263BBEE240C1237D774FFF0E50823
:10407300240B1271C11241D61274C8C41241D6A3C3
:10408300A3F09003CEE07002A3E070059003CE800E
:104093000AE50A126BF8E50B1237DA12702A74017B
:1040A300120B9E1241F7A3F07402120B9E1241F7FA
:1040B300F0850E82850F831241E8A3124236124126
:1040C300CD1259CC240DFAEF3400FB7402120B9E6F
:1040D300E06401600E7407120B9EAC82AD83122064
:1040E3000F80097C087D0079FF12182F7412120BC0
:1040F3009EE0C0E0EE24151237D7D0E012422DFC2B
:10410300901A3CE0C39C4003023FCA12719EE5092A
:104113001237DAA3E05480F9E47001E970099010D2
:10412300F1E07003023FCA7D00EE240CF8EF340087
:10413300F9EE240BFAEF3400FB9003BFE064027046
:104143001D8A828B83E0F50AC39C500D7405120B04
:104153009EE0C39405401B801AE50A6C7015740534
:10416300120B9EE0C0E088828983E0FCD0E0C39C10
:1041730050010D7404120B9EE06020ED601D850854
:1041830082850983126980ECF0A3ED12422D8A82A5
:104193008B83F07405120B9E12540C7406120B9E43
:1041A300E0600D74018E828F83A3A3A3A3A3A3F066
:1041B3007404120B9EE07003023FCA74018E828F57
:1041C30083A3A3A3A3A3F0023FCAF8A3E0F98E82BB
:1041D3008F8322540F8E828F83A3A322E0F9850C51
:1041E30082850D8322124748A322A3A3E0F508A3E7
:1041F300E0F509221247488021850C82850D831240
:1042030042151251E18A828B8312508912108574F0
:104213000222E0F98A828B838002A3A3A3A3A3A330
:10422300A322900342125683E022F0851082851167
:1042330083E022F0850C82850D83E02274F612045C
:104243005F74C91209CB900382E064086062900333
:1042530093E0F82430F582E4341AF583E0FA90030E
:1042630064F0E82436F582E4341AF583E0FB900326
:1042730062F07508FF7509FFEA7808120ABCE508C1
:10428300F4FCE509F4FD3395E0FE90038B1243DF64
:104293007508FF7509FFEBC39A7808120ABCE50895
:1042A300F4FCE509F4FD3395E0FE90038F1243DF40
:1042B300E412608F7904122123900393E070097450
:1042C3001E120B9E74018006741E120B9EE4F07482
:1042D3000F851882851983F09019BD126974794688
:1042E3001221237401120B9EE4F0901A11E0C0E036
:1042F3007402120B9ED0E0F0900370E0C0E07403F0
:10430300120B9ED0E0F07404120B9EE4F0740512BD
:104313000B9EE4F07407120B9EE4F0900393E0FA13
:10432300C3940F74065006120B9EEA8005120B9E6F
:10433300740FF07C947D037408120B9EAA82AB83E6
:1043430012200F7C037D0079FF7410120B9EAA824A
:10435300AB8312182F9003CCE0C0E07413120B9EB2
:10436300D0E01261EB120B9E1261DA1210B59003CA
:1043730087E0C0E0741C120B9ED0E0F0900388E04D
:10438300C0E0741D120B9ED0E0F0900375E0C0E016
:10439300741A120B9ED0E0F09003801251CF741860
:1043A300120B9E1262C17420120B9EE4F090038ADA
:1043B300E0C0E0741F120B9ED0E0F07434120B9E29
:1043C300E4F07429120B9EE41243EA7414120B9E58
:1043D300AA82AB831221417437025F27ECF0A3ED6D
:1043E300F0A3EEF0A3F022F07A737B037953124328
:1043F300F5221221237A767B03794B12212322C0E3
:1044030082C0838A828B83A3E06007E4900382F0F7
:10441300804A7408900382F0900393E0701F900326
:104423004CE07002A3E0600B790090034C125F3301
:104433001222DE9003801253F17A05801A7900125A
:104443000DAF9003731253F17A067B00121FF190A4
:1044530003761253F17A047B00121FF1024EBA74F1
:10446300F412045F74EA1209CBEA2402FEEB34006F
:10447300FF0A0AFB120C598A088B09EA7001EB70D8
:104483000302450B8A828B83125665600F74026A9E
:10449300600A74036A600574046A706CEEFCEFFDD5
:1044A300851882851983126788124510120B9E1294
:1044B30062C1740A120B9E7401F07413120B9E12E4
:1044C3006973122135890AAC0A7D007A077B0012D1
:1044D3001FF1850882850983A3A3A3A3A3E0C2E0F8
:1044E300F07401850882850983A3A3A3A3A3A3A3CF
:1044F300A3A31271F112030EE8850882850983A331
:10450300A3A3A3A3A3A3A3F07416025A661254EFA2
:1045130074082274F012045F74F81209CB8A0C8BAE
:104523000D8C0A8D0B890E851882851983AC82AD9B
:10453300837583807582767408120899F50FAC0C25
:10454300AD0D851882851983AA82AB83126E047020
:1045530003750F019003CE8030AC0CAD0DEE240D2E
:10456300FAEF34001274A7601A850882850983E084
:10457300650E700F8E828F83E0650A7004A3E06579
:104583000B6032EE24161237D7124EAE7001EF6075
:1045930024EE2402124B01E50F70BE8E828F83E05E
:1045A300650A7004A3E0650B70D9850882850983C9
:1045B300E0650E70CEEEFAEFFB0259B774F7120402
:1045C3005F9003CEE0FAA3E0800CEA241612721087
:1045D3001218C5EEFAEFFBEA7001EB70ED9003CE13
:1045E300E4F0A3F002501474F412045F8A088B09F8
:1045F300EA240BFEEB3400FFEA2413F582EB127678
:104603005064037009EEFAEFFB120C59800CE0645E
:104613000270548E828F831271CDEA7001EB604772
:10462300EA2406F8EB122E11850882850983A3E09C
:104633007007E488828983802D64F16005E064E17A
:10464300701A88828983E0640170118A828B8312D5
:10465300466D1222DEEEFAEFFB120C65850A8285A7
:104663000B83E0600214F0025A6912508990035AD6
:10467300125F372274F112045F8A088B09ECFEED96
:10468300FF890A8A828B83126D878A828B83124702
:1046930047F0EEF8EFF9A30EAF838A828B83A3A3CF
:1046A300E0C454F0FA88828983E04A1247511247E2
:1046B3004812474CE0333354FCFA8E828F83E04A2E
:1046C30012474CA3E033333354F8FA8E828F83E0DE
:1046D3004AF008EFF9A30EAF838508828B83A3A367
:1046E300A3A3A3A3E0A2E0E492E013135480FA8807
:1046F300828983E04AF0E5082407F50CEB1265D1C3
:10470300750E00780C1209517C081257D8120968EB
:10471300126D71E508240F1265CD780C1209517CD6
:10472300031257D8120968E50AC3940F4011E5082C
:104733002412F582E5091237DA1241E8A3A3F07FC8
:104743000702074CA3E00241D1124751A322F0858F
:1047530008828B83A3A3A32274F112045FEAFEEB06
:10476300FF890A8C088D098E828F83E08C828D836A
:104773001259C1AE82AF83E0125A7E12482AC41284
:104783005A7E12481EE054038C828D83124828A25D
:10479300E2E492E08C828D83124827131313541F93
:1047A300125A7EA3124827A2E7E492E08C828D83FB
:1047B300A3A3A3A312481E8E0C8F0D750E00780CB5
:1047C3001209517C087D00E50824071248121209DA
:1047D30068126D718E0C8F0D780C1209517C037D5C
:1047E30000E508240F124812120968E5082412F89C
:1047F300E5093400F9E50AC3940F400A8E828F83DA
:10480300A3A3A3E08001E488828983F0024742FAEC
:10481300E5093400FB121823740322A3A31259C51C
:104823000EAF8322A3A3A3A3F0026E2274F4120497
:104833005F74F91209CBEAFEEBFF900342E07002CA
:10484300A3E0601012422564027009EEFAEFFB1236
:1048530011578062900380E06E7003A3E06F70567F
:1048630074016960097A947B03126E0470487A00BC
:104873007B02124B247001EB703C90038378081287
:104883000B598518828519837808120B7790038951
:10489300E0C0E07404120B9ED0E0F07405120B9E8E
:1048A3007401F07406120B9E7402126974120D37B0
:1048B300E96098120D3D7407025A66E0F9024EBA98
:1048C30074F612045F9003E0E0701F7C0079017AB4
:1048D300007B00120FE9EA7001EB600E8A828B8382
:1048E300E07002A3E06003120F29025F2AC082C0B6
:1048F30083124D55401079FF120FE3E9FA90280710
:10490300E493C39A5004790180027900024EBA7489
:10491300EE12045F8A088B09890D750E00EA2408DC
:10492300F50AEB1253E5E0F9120FEF8A108B11AE83
:1049330010AF11750C01EE7001EF60030249D885C9
:104943000882850983A3A31254021258B1125BBFD4
:10495300120FD78A0A8B0BAE0AAF0BEE7001EF7002
:1049630003024AF28E828F83A3A3A3A3E4F0A3F0EE
:10497300E508240B124B12E0C0E0EE240B1237D7EC
:10498300D0E0F012111BEE240C1265EBE508240EA7
:10499300F582E5091251CC1237D41262C1750E01AA
:1049A300EE2406F8EF124D64E0547FF0A3E054FCCC
:1049B300124CAAE054046003024A60901A0A125887
:1049C300A274077808120ABC8A828B83E04508F038
:1049D300A3E04509F0EE2406124B098C828D831265
:1049E3005BBF74805AF50874035BF5097407780894
:1049F300120B68E508F510EE240412304524091261
:104A03004B01E50D606074028508828509831248B5
:104A13002B240D12566FE0A2E2500F90036E125139
:104A2300CF850A82850B831262C1E5107003024AA7
:104A3300BF747F5AFA74FC5BFB74FF2510F5107486
:104A4300FF3400F51174077810120ABCE5104AF818
:104A5300E5114BF98C828D831262C1805FE0448043
:104A6300F0A3E00249D7E5107005750C00804DEA0C
:104A73005420601512183B8A10747F5510F8745F28
:104A830028850A82850B83801BEA5410600E121856
:104A93003B8A10740F5510F8740A80E4850A8285E6
:104AA3000B837401F0A3E4F0740485088285098301
:104AB300F0124B207001EB7003125EAD7401650EB2
:104AC3007030850A82850B83124B1AE0F9EEFAEFF8
:104AD300FB120FDDE9601BEE240C1237D7124DEAEF
:104AE3007001EB60031218C5EEFAEFFB1218C575DF
:104AF3000C00A90C80031209687F0A02074CF50811
:104B0300EF3400F50922F8EF1251C4FCE9FD22FA53
:104B1300E5093400024CB11251E50264807A207B2E
:104B2300009003CDE0F9121985EA2274F612045FAE
:104B330074F71209CB7E00120FEFEA7001EB7003DA
:104B4300024BFB8A828B83A3A3A3A3A3A3A3A3A345
:104B5300E064066003024BFB8A828B83A3A3A3A3B7
:104B6300A3A3A3E0FF8A828B8312567DE0C0E07487
:104B730008120B9ED0E0124CAA125F331267021286
:104B830062C112100D74085FF9E47001E960678572
:104B930018828519831253F17A007B00120FD1EA30
:104BA3007001EB70519003801251D31221657C0088
:104BB3007D007A007B0080288E828F83126475E0EB
:104BC30064FF7004A3E064FF602C9003801253F130
:104BD300121D5DE9641A601E7C007D00EEFAEFFB96
:104BE300120FD18A088B09AE08AF09EE7001EF707E
:104BF300C7790012216B7E01EEF9025F2574F7126B
:104C0300045FEA7001EB70059003E180068A828BF2
:104C130083A3A3124DEA7001EB60288A828B83A3DE
:104C2300A3A3A3A3A3A3E05408F9E47001E960DDFF
:104C3300EC7001ED60111254136C7003A3E06D70FE
:104C4300CC80047A007B0002501474F212045FEAF1
:104C5300FEEBFF890A8C088D097A107B001218BFBE
:104C6300EA7001EB603CE48A828B83A3A3A3A3A332
:104C7300A3A3A3124CB7E50A12501F1263B38A828F
:104C83008B83A3A3A3A3E4F0124CB7124CA8127016
:104C93002AEA240CF582EB1274C2124CA9A3A3F0E6
:104CA300A3F0022AA1A3A3124CAE22F08001FB8A37
:104CB300828B8322A3125023A3A32274F512045FD1
:104CC300EAFEEBFF890A8C088D09EE7001EF60564E
:104CD3007401650A70147901120FE3E9FA9027FF52
:104CE300E493C39A500F791180657404650A703098
:104CF300124D5540F18E828F83A3A3A3A3A3A3A335
:104D0300A3A3E50A1259DA127730E4F0A3F0900373
:104D1300E1E07002A3E09003E160241251CF800A26
:104D23007402650A60CF79C18025E824020808E986
:104D3300124D64124E587001E970EF8A828B831210
:104D4300702A124B207001EB7003125EAD790002E2
:104D5300696E7904120FE3E9FA9027F8E493C39A92
:104D6300221251C4FAE9024CB1C082C083E9FC7932
:104D7300009003E1801D8A828B83A3A3A3A3A3A333
:104D8300A3A3A3E06C600574FF6C7001098A828B96
:104D930083A3A3124DEA7001EB70DB024EBA74F7E2
:104DA30012045FEA7001EB70059003E180068A82CA
:104DB3008B83A3A3124DEA7001EB60248A828B8359
:104DC300A3A3A3A3A3A3A3A3A3E06970E1EC60142B
:104DD3008A828B83E0240D126E1CA2E240D08004F1
:104DE3007A007B00025014125089EA22C082C083E9
:104DF3009003E180068A828B83A3A3124DEA70019C
:104E0300EB60128A828B83A3A3A3A3A3A3A3A3E030
:104E13006970E280047A007B00024EBAC082C083CC
:104E23009003E1800688828983A3A3124E58700100
:104E3300E9601B88828983E0FCA3E0F5838C82E030
:104E43006A7003A3E06B70DDE8FAE9FB80047A0083
:104E53007B00024EBA1254EFE82274F112045F8A07
:104E63000A8B0B8C0C8D0D750800750900EA700117
:104E7300EB60319003E180068E828F83A3A3124EF1
:104E8300AE7001EF601EAC0CAD0DEEFAEFFB850AC0
:104E930082850B831222DEE9640170DCEEF8EFF900
:104EA30088088909AA08AB09024742E0FEA3E0FF8C
:104EB300EE227402120968D083D0820208FE7900C0
:104EC3000208FE74F712045F9003E11251CF7C00D5
:104ED3007D008007E8FCE9FD1251CFE87001E9602D
:104EE3003AE82402F582E91237DAEA687002EB69DC
:104EF30070E2125BBF9003E1127216E86E7002E972
:104F03006F70099003E1EAF0A3EB800EEAF8EBF986
:104F13008C828D83A3A3E8F0A3E9F002501474F705
:104F230012045FEAFEEBFFEE7001EF60161210074A
:104F3300125060EA7001EB60031218C5EEFAEFFB42
:104F43001218C502501474F712045F125413FCA311
:104F5300E0FD9003E11251CF7508007E0080338895
:104F6300828983A3A3A3A3A3A3A3A3A3E06405703C
:104F7300180E88828983E0FFA3E0F5838F82E06CBB
:104F83007003A3E06D7002050888828983A3A312CE
:104F930051CFE87001E970C7EA2404F8EB3400F953
:104FA3009027F5E493FCE508C39C500B9027F6E4A7
:104FB30093FCEEC39C400B888289837401F0A3E4C5
:104FC300800A90036E125019ECF0A3EDF074058A79
:104FD300828B83A3A3A3A3A3A3A3A3A312501FE022
:104FE300F0A3E044081259D38A828B83E064FF70F4
:104FF30004A3E064FF600E9003801253F112215F5B
:10500300E9641A7005790112216B8005741F120976
:10501300687F0102074C1251E502701F12502322D0
:10502300F08A828B8302421E74F612045F9003E1BE
:1050330012721680188E828F831241ED1250601205
:1050430018C5EEFAEFFB1218C5AE08AF09EE7001F2
:10505300EF70E29003E1E4F0A3F0025F2A8E828F07
:1050630083E0241C12508FFAA3E0FB1218C58E8232
:105073008F831250891218C5EE240C12508222F528
:1050830082EF3400F583E0FAA3E0FB22125677E0C7
:1050930022C082C083EAFCEBFDEC7001ED70047961
:1050A30005804CEC24FBF582ED34FFF583E07002C0
:1050B300A3E07011EC24FFF8ED34FFF988828983B3
:1050C300E064FF600512184780D59003CD12540C9D
:1050D3009027FAE493F97AE37B03121877E96401E2
:1050E300700B7A007B20125EB17900800279040292
:1050F3004EBA74F412045FA2AFE492E0F508C2AFB3
:105103009003E3124EAE7001EF603DEE24FBF58297
:10511300EF34FFF583E07002A3E07A007B20900375
:10512300CD6005125EB48005E0F9121883750A009C
:10513300750B00780A120955EEFCEFFD7AE37B0349
:105143001218717402120968E508A2E092AFEEFA30
:10515300EFFB025A6974F712045F74E11209CBEA98
:105163002413F582EB127650C0E07411120B9ED01B
:10517300E01254E67409120B9E1254DF1251BCFC68
:10518300E9FD8C828D831251CF740B120B9E125446
:10519300DF2414F582EB127650C0E07412120B9EDA
:1051A300D0E0F0EA240EF582EB1237E18C828D8396
:1051B3001251D3120EB702500F24041251C222F817
:1051C300EB3400F9E822F582EF1271EC1254EF226E
:1051D3001251E5851882851983AA82AB8322A3A382
:1051E300A3A3E0FCA3E0FD2274EE12045F74FC129F
:1051F30009CBEAFEEBFF120FBFE9600579110253F9
:10520300E0EE2412F510EF3400F511EE2402F50A56
:10521300EF1253E5126AE66008E485108285118374
:10522300F0EE24131257E1700C902802E493850CDE
:1052330082850D83F0EE2411F8EF1265D670199074
:1052430011C4E0600D90036AE0700D8E828F83E0DD
:105253007006E488828983F0EE2414080808EF12AC
:1052630071C4700C90035F12540C90035FE004F060
:10527300EE240F124B01EE240B1237CC90036DE09A
:10528300A2E1504F850A82850B83126AE660448E41
:10529300828F83E0600B850E82850F83122E276039
:1052A30032850882850983E05440601A850C828523
:1052B3000D83E06401700F850882850983E054FB48
:1052C300F0A3E0F0800DEEFAEFFB12102BE9700370
:1052D3000251FF8E828F83E06401701A850E8285EE
:1052E3000F831254176402700D850882850983E0C9
:1052F3004440F0A3E0F0850882850983E0544070C0
:105303005290036DE0A2E1504A750C00780C12092B
:1053130059EE2406FCEF3400FD850A82850B8312C7
:105323005BBF851082851183E0F9120EF3740112BD
:105333000968E9600CE4851082851183F01253F546
:10534300F079008E828F8312540212381660041291
:1053530053F5F0851882851983AC82AD83EEFAEF9D
:10536300FB1210438A0C8B0D850A82850B83125323
:10537300F1EA7001EB60628E828F83E0C0E074011A
:10538300120B9ED0E0F07402120B9E12702A74016D
:10539300120B9E85820A85830B780A1209558508AC
:1053A300828509831207C8EE240E12764DF508781C
:1053B300081209599003731207C87407120B9EE071
:1053C300F912103D7407120968E9FE74106E700B30
:1053D300AA0CAB0D1218C580027E10EEF9740402FC
:1053E3004AF9127182850A82F583221271E91251F8
:1053F300E522850882850983E04420F0A3E0221298
:1054030051E1850A82850B8322E088828983F02219
:105413008A828B8312541B22125F3BE022C082C01C
:105423008374DE1209CB8A828B83A3A3A3A31251B5
:10543300CF740E120B9EE8F0A3E91254E6740C121B
:105443000B9E1254DF240DF582EB127650C0E074EC
:105453001A120B9ED0E0F0EA1271A0EB1251CC7439
:1054630020120B9E1254DF2415F582EB127650C0E6
:10547300E07408120B9ED0E0F0EA241CF582EB12D4
:1054830051CC7412120B9E1254DF2411F582EB12CD
:105493007650C0E07409120B9ED0E0F074FF8518BB
:1054A30082851983F07401120B9E74FFF07402124B
:1054B3000B9E74FFF09080B21207C07404120B9E0F
:1054C300AC82AD837407120B9EAA82AB83120D9D2F
:1054D300740412096879007422024EB7E8F0A3E954
:1054E300F0EA22124CAEA3A31254EF221254F32279
:1054F300E0F8A3E0F92274EA12045F74EE1209CB18
:105503008A148B15ECFEEDFF890F7428120B9E1283
:105513006D52742A120B9EE0F50C742B120B9E1223
:1055230041EF742D120B9EE0F512A3E0F513750DF8
:10553300107A1E7B001218BF7402120B9E1265F2C2
:105543007402120B9EE07002A3E0700302565975B9
:105553000E00EEFAEFFB120C538A828B83E5827006
:1055630002E5836016125665600574036A700CE5E4
:10557300085440700674044509F50974045509F983
:10558300E47001E96003750E01851882851983AA09
:1055930082AB837950125BB67402120B9E12567D56
:1055A300A31265F27410120B9EE50AF0A3E50BF04B
:1055B3007402120B9EE0240B12566F7402F0120B4E
:1055C3009E12567D7402F0120B9E125F3312702AE4
:1055D3007402120B9E126812E50FF07402120B9EF6
:1055E300E0240C12566FE50CF07402120B9EE024BB
:1055F3001C12566FE514F0A3E515F07408120B9E08
:105603001263B3740A120B9EE50CF08512828513A4
:1056130083C082C083740D120B9EAC82AD83D08392
:10562300D0827403120899A90E7402120B9EAA82E7
:10563300AB83120FC5E964017011E50E6008A90C74
:10564300120FEF121013750D00800B7402120B9ED4
:10565300125BBF1218C5A90D74121209687F0E02DE
:10566300074CA3A3A3A3E0FA74016A221256732280
:1056730012567722F8A3E002701C125683A3A322CA
:105683001266FD02421F74EA12045FEAFEEBFF8C0E
:10569300088D098E828F83A385820A85830B740804
:1056A300F0EE24161257E160097410850A82850B07
:1056B30083F0EE2417F510EF1257EF600A850A8284
:1056C300850B83E02408F0EE2411F8EF1271C46017
:1056D30005750E0E8003750E00EE240DF514EF34E0
:1056E30000F515850A82850B83E085148285158371
:1056F300FAE02A250E8C828D831274C960139003FD
:105703006BE0F912221FE9FA850882850983E02AF2
:10571300F0850882850983E0FAC39475400975080A
:10572300007509000257D17B001270D87001EB702D
:10573300030257D1EEFAEFFB121049EA850882857E
:1057430009831265F3EE2402F812647B125804F005
:10575300EE2404080812647BA3A3125804A3A3F045
:10576300EE24131257FAF0EE24141257FAA3F07A28
:1057730008850C82850D83E0600FEE24181253EE2A
:10578300E5082408126D487A10851082851183E09C
:10579300600FEE241A1253EE8A0CE508250C126DE5
:1057A30048EE240B12764DF510A3E0F511751200A7
:1057B3007810120951851482851583E0FC7D00124F
:1057C3005BC3E50E28FAE4391257DD120968AA080B
:1057D300AB090256607D00EEFAEFFB024818F50CA8
:1057E300EF3400F50D850C82F583E0223400F511CA
:1057F300851082F583E0221271E912580EA3A3A348
:1058030022A3A3127193A312580E22E08508828566
:105813000983A3A3A32274F612045F8A828B83E015
:10582300FC9003701258A274027808120ABCE508AF
:105833004CFCAD09EA241212589C74067808120A2B
:10584300BCE5084CFCE5094DFDEA241112589C7493
:10585300097808120ABCE5094DFDEA241612589C82
:10586300740B7808120ABCE5094DFDEA2417125897
:105873009C740C7808120ABCE5094DFD8A828B835F
:10588300A3A3A3A3A3A31258A2740A7808120ABC61
:10589300ECFAE5094DFB025F2AF582EB1271ECE0AD
:1058A300F50875090022F085188285198322E0F92D
:1058B30002648074F012045F8A088B09ECFEEDFF2A
:1058C300750A01E9C39408500579000259B5E98EB8
:1058D300828F831259D3121055E96003750A00129F
:1058E3005C08C0E0EE24111237D7D0E0125C03C08D
:1058F300E0EE24121237D7D0E01259C1A882A9834F
:10590300125BD56010E5082408FAE5093400FBEEC4
:1059130024131259E68E828F83A3A3A3A3A3A3A365
:10592300A3E0601588828983E0FAE5082AFAE5098D
:105933003400FBEE24151259E6EE24191274BFEE5F
:10594300241B1274BF1274C8F50B8E828F83E0F58B
:105953000CC3950B50030258CC850B0EE508250E9E
:10596300F8E5093400F9EE241DFAEF3400FBEAFCF4
:10597300EBFD8C828D831259CC2417FAEF3400FB94
:105983008A088B09E50CC3950B8A828B831259DA3B
:10599300A3A3E0601B8A828B83E024F2F0E8240E49
:1059A300F8E9125BDFFA850882850983E0C39AF080
:1059B300A90A800574081209687F0802074C125966
:1059C300C522F08E828F83A322E8F0A3E9F0EE22B2
:1059D300124CAE125089221259DE22F08E828F832E
:1059E3000242201271E9EAF0A3EB127193E024085A
:1059F300F02274F412045F8A088B09EA125A85F0C4
:105A0300EA1313543F125A7EA3A3A3F0EAC4131359
:105A1300125A85A3A3F0E48C828D83A3A3A3A3A32B
:105A2300F08A0A8B0B7409780A120B68125A73F006
:105A3300EC2418F582ED1274C28A0A8B0B740B786E
:105A43000A120B68125A6EF08A0A8B0B740C780ACE
:105A5300120B68125A6EA3F0740D7808120B68A922
:105A63000880031209687F0402074C125A73A322A9
:105A7300E50A54018C828D8302421E540F8C828D61
:105A8300832254038C828D83A3A322C082C0837993
:105A93000090036A126462A3A3A3A3E0600FEC70F7
:105AA300268A828B83A3A3E0701D09801AEC6017FA
:105AB3008A828B83A3A3A3A3A3A3A3A3A3125ACDD5
:105AC3007003A3E06B70E3024EBA12508990037324
:105AD300E06A2274EE12045F8A088B09890CECFEDB
:105AE300EDFF8A828B83125BBF121055125C08C0D4
:105AF300E0EE24111237D7D0E0125C03C0E0EE24AD
:105B0300121237D7D0E01259C185820A85830B124E
:105B13005BD56010E5082408F8E5093400F9EE24A4
:105B230013125BF58E828F83A3A3A3A3A3A3A3A3C3
:105B3300E06009125BC3EE2415125BF5EEFAEFFB8E
